{
  "contractName": "LifeInsurancePolicy",
  "abi": [
    {
      "constant": true,
      "inputs": [],
      "name": "isInvestmentPeriodEnded",
      "outputs": [
        {
          "name": "",
          "type": "bool"
        }
      ],
      "payable": false,
      "stateMutability": "view",
      "type": "function"
    },
    {
      "constant": false,
      "inputs": [
        {
          "name": "policyOwner",
          "type": "address"
        }
      ],
      "name": "confirmPolicy",
      "outputs": [],
      "payable": false,
      "stateMutability": "nonpayable",
      "type": "function"
    },
    {
      "constant": true,
      "inputs": [],
      "name": "totalInsurers",
      "outputs": [
        {
          "name": "",
          "type": "uint256"
        }
      ],
      "payable": false,
      "stateMutability": "view",
      "type": "function"
    },
    {
      "constant": true,
      "inputs": [],
      "name": "getPolicyEndDateTimestamp",
      "outputs": [
        {
          "name": "",
          "type": "uint256"
        }
      ],
      "payable": false,
      "stateMutability": "view",
      "type": "function"
    },
    {
      "constant": true,
      "inputs": [],
      "name": "totalInvestedAmount",
      "outputs": [
        {
          "name": "",
          "type": "uint256"
        }
      ],
      "payable": false,
      "stateMutability": "view",
      "type": "function"
    },
    {
      "constant": true,
      "inputs": [],
      "name": "writtenPremiumAmount",
      "outputs": [
        {
          "name": "",
          "type": "uint256"
        }
      ],
      "payable": false,
      "stateMutability": "view",
      "type": "function"
    },
    {
      "constant": true,
      "inputs": [],
      "name": "totalClaimsPaid",
      "outputs": [
        {
          "name": "",
          "type": "uint256"
        }
      ],
      "payable": false,
      "stateMutability": "view",
      "type": "function"
    },
    {
      "constant": true,
      "inputs": [
        {
          "name": "insuredAge",
          "type": "string"
        },
        {
          "name": "insuredSmokingStatus",
          "type": "string"
        },
        {
          "name": "insuredOccupation",
          "type": "string"
        }
      ],
      "name": "policyPrice",
      "outputs": [
        {
          "name": "price",
          "type": "uint256"
        }
      ],
      "payable": false,
      "stateMutability": "view",
      "type": "function"
    },
    {
      "constant": true,
      "inputs": [
        {
          "name": "",
          "type": "address"
        }
      ],
      "name": "investors",
      "outputs": [
        {
          "name": "",
          "type": "uint256"
        }
      ],
      "payable": false,
      "stateMutability": "view",
      "type": "function"
    },
    {
      "constant": true,
      "inputs": [],
      "name": "totalInvestorsCount",
      "outputs": [
        {
          "name": "",
          "type": "uint256"
        }
      ],
      "payable": false,
      "stateMutability": "view",
      "type": "function"
    },
    {
      "constant": true,
      "inputs": [],
      "name": "policiesLimit",
      "outputs": [
        {
          "name": "",
          "type": "uint256"
        }
      ],
      "payable": false,
      "stateMutability": "view",
      "type": "function"
    },
    {
      "constant": true,
      "inputs": [],
      "name": "lastPolicyDate",
      "outputs": [
        {
          "name": "",
          "type": "uint32"
        }
      ],
      "payable": false,
      "stateMutability": "view",
      "type": "function"
    },
    {
      "constant": true,
      "inputs": [],
      "name": "getPolicyNextPayment",
      "outputs": [
        {
          "name": "",
          "type": "uint256"
        }
      ],
      "payable": false,
      "stateMutability": "view",
      "type": "function"
    },
    {
      "constant": true,
      "inputs": [],
      "name": "basePremium",
      "outputs": [
        {
          "name": "",
          "type": "uint256"
        }
      ],
      "payable": false,
      "stateMutability": "view",
      "type": "function"
    },
    {
      "constant": true,
      "inputs": [],
      "name": "totalPrice",
      "outputs": [
        {
          "name": "",
          "type": "uint256"
        }
      ],
      "payable": false,
      "stateMutability": "view",
      "type": "function"
    },
    {
      "constant": false,
      "inputs": [
        {
          "name": "insuredNIK",
          "type": "string"
        },
        {
          "name": "insuredDeathLetterNumber",
          "type": "string"
        },
        {
          "name": "insuredGovernmentLetterNumber",
          "type": "string"
        },
        {
          "name": "insuredDeathHospital",
          "type": "string"
        },
        {
          "name": "policyNumber",
          "type": "string"
        }
      ],
      "name": "claim",
      "outputs": [
        {
          "name": "",
          "type": "bool"
        }
      ],
      "payable": false,
      "stateMutability": "nonpayable",
      "type": "function"
    },
    {
      "constant": false,
      "inputs": [
        {
          "name": "userId",
          "type": "string"
        },
        {
          "name": "insuredName",
          "type": "string"
        },
        {
          "name": "insuredAge",
          "type": "string"
        },
        {
          "name": "insuredSmokingStatus",
          "type": "string"
        },
        {
          "name": "insuredOccupation",
          "type": "string"
        },
        {
          "name": "insuredNIK",
          "type": "string"
        },
        {
          "name": "insuredDeathLetterNumber",
          "type": "string"
        },
        {
          "name": "insuredGovernmentLetterNumber",
          "type": "string"
        },
        {
          "name": "insuredDeathHospital",
          "type": "string"
        },
        {
          "name": "policyNumber",
          "type": "string"
        }
      ],
      "name": "insure",
      "outputs": [
        {
          "name": "insured",
          "type": "bool"
        }
      ],
      "payable": true,
      "stateMutability": "payable",
      "type": "function"
    },
    {
      "constant": true,
      "inputs": [],
      "name": "investmentsDeadlineTimeStamp",
      "outputs": [
        {
          "name": "",
          "type": "uint32"
        }
      ],
      "payable": false,
      "stateMutability": "view",
      "type": "function"
    },
    {
      "constant": true,
      "inputs": [],
      "name": "maxPayout",
      "outputs": [
        {
          "name": "",
          "type": "uint256"
        }
      ],
      "payable": false,
      "stateMutability": "view",
      "type": "function"
    },
    {
      "constant": true,
      "inputs": [],
      "name": "claimed",
      "outputs": [
        {
          "name": "",
          "type": "bool"
        }
      ],
      "payable": false,
      "stateMutability": "view",
      "type": "function"
    },
    {
      "constant": false,
      "inputs": [],
      "name": "invest",
      "outputs": [
        {
          "name": "success",
          "type": "bool"
        }
      ],
      "payable": true,
      "stateMutability": "payable",
      "type": "function"
    },
    {
      "constant": true,
      "inputs": [],
      "name": "investmentsLimit",
      "outputs": [
        {
          "name": "",
          "type": "uint128"
        }
      ],
      "payable": false,
      "stateMutability": "view",
      "type": "function"
    },
    {
      "constant": true,
      "inputs": [],
      "name": "monthlyPayment",
      "outputs": [
        {
          "name": "",
          "type": "uint256"
        }
      ],
      "payable": false,
      "stateMutability": "view",
      "type": "function"
    },
    {
      "inputs": [],
      "payable": true,
      "stateMutability": "payable",
      "type": "constructor"
    },
    {
      "payable": true,
      "stateMutability": "payable",
      "type": "fallback"
    },
    {
      "anonymous": false,
      "inputs": [
        {
          "indexed": false,
          "name": "insuredName",
          "type": "string"
        },
        {
          "indexed": false,
          "name": "insurancePrice",
          "type": "uint256"
        }
      ],
      "name": "Insured",
      "type": "event"
    },
    {
      "anonymous": false,
      "inputs": [
        {
          "indexed": false,
          "name": "payout",
          "type": "uint256"
        }
      ],
      "name": "Claimed",
      "type": "event"
    },
    {
      "anonymous": false,
      "inputs": [
        {
          "indexed": false,
          "name": "value",
          "type": "uint256"
        }
      ],
      "name": "Invested",
      "type": "event"
    }
  ],
  "bytecode": "0x606060405273627306090abab3a6e1400e9345bc60c78a8bef57601060006101000a81548173ffffffffffffffffffffffffffffffffffffffff021916908373ffffffffffffffffffffffffffffffffffffffff160217905550346000803373ffffffffffffffffffffffffffffffffffffffff1673ffffffffffffffffffffffffffffffffffffffff16815260200190815260200160002054016000803373ffffffffffffffffffffffffffffffffffffffff1673ffffffffffffffffffffffffffffffffffffffff1681526020019081526020016000208190555060016000815480929190600101919050555034600254016002819055507fac9f7997c30b6a3cc9c74953898b5de154359339c7ec0d6d70ceb98e55db1a4b346040518082815260200191505060405180910390a161014b61015064010000000002612262176401000000009004565b61090d565b6046600860405180807f696e737572656441676500000000000000000000000000000000000000000000815250600a019050908152602001604051809103902060405180807f313000000000000000000000000000000000000000000000000000000000000081525060020190509081526020016040518091039020819055506050600860405180807f696e737572656441676500000000000000000000000000000000000000000000815250600a019050908152602001604051809103902060405180807f31350000000000000000000000000000000000000000000000000000000000008152506002019050908152602001604051809103902081905550605a600860405180807f696e737572656441676500000000000000000000000000000000000000000000815250600a019050908152602001604051809103902060405180807f323000000000000000000000000000000000000000000000000000000000000081525060020190509081526020016040518091039020819055506064600860405180807f696e737572656441676500000000000000000000000000000000000000000000815250600a019050908152602001604051809103902060405180807f32350000000000000000000000000000000000000000000000000000000000008152506002019050908152602001604051809103902081905550606e600860405180807f696e737572656441676500000000000000000000000000000000000000000000815250600a019050908152602001604051809103902060405180807f333000000000000000000000000000000000000000000000000000000000000081525060020190509081526020016040518091039020819055506078600860405180807f696e737572656441676500000000000000000000000000000000000000000000815250600a019050908152602001604051809103902060405180807f64656661756c740000000000000000000000000000000000000000000000000081525060070190509081526020016040518091039020819055506078600860405180807f696e7375726564536d6f6b696e675374617475730000000000000000000000008152506014019050908152602001604051809103902060405180807f796573000000000000000000000000000000000000000000000000000000000081525060030190509081526020016040518091039020819055506064600860405180807f696e7375726564536d6f6b696e675374617475730000000000000000000000008152506014019050908152602001604051809103902060405180807f6e6f0000000000000000000000000000000000000000000000000000000000008152506002019050908152602001604051809103902081905550607d600860405180807f696e73757265644f636375706174696f6e0000000000000000000000000000008152506011019050908152602001604051809103902060405180807f70696c6f740000000000000000000000000000000000000000000000000000008152506005019050908152602001604051809103902081905550607d600860405180807f696e73757265644f636375706174696f6e0000000000000000000000000000008152506011019050908152602001604051809103902060405180807f61726d79000000000000000000000000000000000000000000000000000000008152506004019050908152602001604051809103902081905550607d600860405180807f696e73757265644f636375706174696f6e0000000000000000000000000000008152506011019050908152602001604051809103902060405180807f706f6c69636500000000000000000000000000000000000000000000000000008152506006019050908152602001604051809103902081905550607d600860405180807f696e73757265644f636375706174696f6e0000000000000000000000000000008152506011019050908152602001604051809103902060405180807f70696c6f7400000000000000000000000000000000000000000000000000000081525060050190509081526020016040518091039020819055506073600860405180807f696e73757265644f636375706174696f6e0000000000000000000000000000008152506011019050908152602001604051809103902060405180807f64726976657200000000000000000000000000000000000000000000000000008152506006019050908152602001604051809103902081905550606e600860405180807f696e73757265644f636375706174696f6e0000000000000000000000000000008152506011019050908152602001604051809103902060405180807f64656661756c7400000000000000000000000000000000000000000000000000815250600701905090815260200160405180910390208190555066038d7ea4c68000600981905550662386f26fc10000600a81905550683635c9adc5dea00000600560006101000a8154816fffffffffffffffffffffffffffffffff02191690836fffffffffffffffffffffffffffffffff1602179055506276a7004201600560106101000a81548163ffffffff021916908363ffffffff1602179055506276a7004201600d60006101000a81548163ffffffff021916908363ffffffff1602179055506127106006819055506032600b81905550565b612a4b8061091c6000396000f300606060405260043610610133576000357c0100000000000000000000000000000000000000000000000000000000900463ffffffff1680630bf094d8146101385780631913345514610165578063241dcef11461019e578063411efa1d146101c757806343214521146101f057806348279091146102195780636532ccf514610242578063673cc8611461026b5780636f7bc9be146103625780637275ae14146103af57806385d1afd2146103d85780638e11d0ea146104015780639882c6d914610436578063a5bd79821461045f578063ab0d92dd14610488578063ca774d0b146104b1578063d5356fb714610632578063df4fddf5146108f7578063e0176de81461092c578063e834a83414610955578063e8b5e51f14610982578063eec65f29146109a4578063f75dbeef146109f1575b600080fd5b341561014357600080fd5b61014b610a1a565b604051808215151515815260200191505060405180910390f35b341561017057600080fd5b61019c600480803573ffffffffffffffffffffffffffffffffffffffff16906020019091905050610a3c565b005b34156101a957600080fd5b6101b1610af6565b6040518082815260200191505060405180910390f35b34156101d257600080fd5b6101da610afc565b6040518082815260200191505060405180910390f35b34156101fb57600080fd5b610203610b46565b6040518082815260200191505060405180910390f35b341561022457600080fd5b61022c610b4c565b6040518082815260200191505060405180910390f35b341561024d57600080fd5b610255610b52565b6040518082815260200191505060405180910390f35b341561027657600080fd5b61034c600480803590602001908201803590602001908080601f0160208091040260200160405190810160405280939291908181526020018383808284378201915050505050509190803590602001908201803590602001908080601f0160208091040260200160405190810160405280939291908181526020018383808284378201915050505050509190803590602001908201803590602001908080601f01602080910402602001604051908101604052809392919081815260200183838082843782019150505050505091905050610b58565b6040518082815260200191505060405180910390f35b341561036d57600080fd5b610399600480803573ffffffffffffffffffffffffffffffffffffffff16906020019091905050611011565b6040518082815260200191505060405180910390f35b34156103ba57600080fd5b6103c2611029565b6040518082815260200191505060405180910390f35b34156103e357600080fd5b6103eb61102f565b6040518082815260200191505060405180910390f35b341561040c57600080fd5b610414611035565b604051808263ffffffff1663ffffffff16815260200191505060405180910390f35b341561044157600080fd5b61044961104b565b6040518082815260200191505060405180910390f35b341561046a57600080fd5b610472611095565b6040518082815260200191505060405180910390f35b341561049357600080fd5b61049b61109b565b6040518082815260200191505060405180910390f35b34156104bc57600080fd5b610618600480803590602001908201803590602001908080601f0160208091040260200160405190810160405280939291908181526020018383808284378201915050505050509190803590602001908201803590602001908080601f0160208091040260200160405190810160405280939291908181526020018383808284378201915050505050509190803590602001908201803590602001908080601f0160208091040260200160405190810160405280939291908181526020018383808284378201915050505050509190803590602001908201803590602001908080601f0160208091040260200160405190810160405280939291908181526020018383808284378201915050505050509190803590602001908201803590602001908080601f016020809104026020016040519081016040528093929190818152602001838380828437820191505050505050919050506110a1565b604051808215151515815260200191505060405180910390f35b6108dd600480803590602001908201803590602001908080601f0160208091040260200160405190810160405280939291908181526020018383808284378201915050505050509190803590602001908201803590602001908080601f0160208091040260200160405190810160405280939291908181526020018383808284378201915050505050509190803590602001908201803590602001908080601f0160208091040260200160405190810160405280939291908181526020018383808284378201915050505050509190803590602001908201803590602001908080601f0160208091040260200160405190810160405280939291908181526020018383808284378201915050505050509190803590602001908201803590602001908080601f0160208091040260200160405190810160405280939291908181526020018383808284378201915050505050509190803590602001908201803590602001908080601f0160208091040260200160405190810160405280939291908181526020018383808284378201915050505050509190803590602001908201803590602001908080601f0160208091040260200160405190810160405280939291908181526020018383808284378201915050505050509190803590602001908201803590602001908080601f0160208091040260200160405190810160405280939291908181526020018383808284378201915050505050509190803590602001908201803590602001908080601f0160208091040260200160405190810160405280939291908181526020018383808284378201915050505050509190803590602001908201803590602001908080601f01602080910402602001604051908101604052809392919081815260200183838082843782019150505050505091905050611a53565b604051808215151515815260200191505060405180910390f35b341561090257600080fd5b61090a611e4e565b604051808263ffffffff1663ffffffff16815260200191505060405180910390f35b341561093757600080fd5b61093f611e64565b6040518082815260200191505060405180910390f35b341561096057600080fd5b610968611e6a565b604051808215151515815260200191505060405180910390f35b61098a611ec1565b604051808215151515815260200191505060405180910390f35b34156109af57600080fd5b6109b7611fc9565b60405180826fffffffffffffffffffffffffffffffff166fffffffffffffffffffffffffffffffff16815260200191505060405180910390f35b34156109fc57600080fd5b610a04611feb565b6040518082815260200191505060405180910390f35b600042600560109054906101000a900463ffffffff1663ffffffff1610905090565b3373ffffffffffffffffffffffffffffffffffffffff16601060009054906101000a900473ffffffffffffffffffffffffffffffffffffffff1673ffffffffffffffffffffffffffffffffffffffff16141515610a9857600080fd5b6001600760008373ffffffffffffffffffffffffffffffffffffffff1673ffffffffffffffffffffffffffffffffffffffff168152602001908152602001600020600f0160016101000a81548160ff02191690831515021790555050565b60035481565b6000600760003373ffffffffffffffffffffffffffffffffffffffff1673ffffffffffffffffffffffffffffffffffffffff168152602001908152602001600020600a0154905090565b60025481565b600c5481565b60045481565b600080600080600080600860405180807f696e737572656441676500000000000000000000000000000000000000000000815250600a019050908152602001604051809103902060405180807f64656661756c740000000000000000000000000000000000000000000000000081525060070190509081526020016040518091039020549450600860405180807f696e7375726564536d6f6b696e6753746174757300000000000000000000000081525060140190509081526020016040518091039020886040518082805190602001908083835b602083101515610c525780518252602082019150602081019050602083039250610c2d565b6001836020036101000a0380198251168184511680821785525050505050509050019150509081526020016040518091039020549350600860405180807f696e73757265644f636375706174696f6e0000000000000000000000000000008152506011019050908152602001604051809103902060405180807f64656661756c7400000000000000000000000000000000000000000000000000815250600701905090815260200160405180910390205492506000600860405180807f696e737572656441676500000000000000000000000000000000000000000000815250600a01905090815260200160405180910390208a6040518082805190602001908083835b602083101515610d7b5780518252602082019150602081019050602083039250610d56565b6001836020036101000a038019825116818451168082178552505050505050905001915050908152602001604051809103902054141515610e6157600860405180807f696e737572656441676500000000000000000000000000000000000000000000815250600a0190509081526020016040518091039020896040518082805190602001908083835b602083101515610e2a5780518252602082019150602081019050602083039250610e05565b6001836020036101000a03801982511681845116808217855250505050505090500191505090815260200160405180910390205494505b6000600860405180807f696e73757265644f636375706174696f6e00000000000000000000000000000081525060110190509081526020016040518091039020886040518082805190602001908083835b602083101515610ed75780518252602082019150602081019050602083039250610eb2565b6001836020036101000a038019825116818451168082178552505050505050905001915050908152602001604051809103902054141515610fbd57600860405180807f696e73757265644f636375706174696f6e00000000000000000000000000000081525060110190509081526020016040518091039020876040518082805190602001908083835b602083101515610f865780518252602082019150602081019050602083039250610f61565b6001836020036101000a03801982511681845116808217855250505050505090500191505090815260200160405180910390205492505b60648360648660648960095402811515610fd357fe5b0402811515610fde57fe5b0402811515610fe957fe5b0491506064600b5460640383811515610ffe57fe5b0402905080955050505050509392505050565b60006020528060005260406000206000915090505481565b60015481565b60065481565b600d60009054906101000a900463ffffffff1681565b6000600760003373ffffffffffffffffffffffffffffffffffffffff1673ffffffffffffffffffffffffffffffffffffffff168152602001908152602001600020600b0154905090565b60095481565b600f5481565b6000806000806110af611ff1565b6110b7611ff1565b6110bf611ff1565b6110c7611ff1565b6110cf611ff1565b60076000601060009054906101000a900473ffffffffffffffffffffffffffffffffffffffff1673ffffffffffffffffffffffffffffffffffffffff1673ffffffffffffffffffffffffffffffffffffffff16815260200190815260200160002097508760000196508760000160000195508d94508c93508b92508a915089905073__StringUtils___________________________6346bdca9a88600801876000604051602001526040518363ffffffff167c01000000000000000000000000000000000000000000000000000000000281526004018080602001806020018381038352858181546001816001161561010002031660029004815260200191508054600181600116156101000203166002900480156112305780601f1061120557610100808354040283529160200191611230565b820191906000526020600020905b81548152906001019060200180831161121357829003601f168201915b5050838103825284818151815260200191508051906020019080838360005b8381101561126a57808201518184015260208101905061124f565b50505050905090810190601f1680156112975780820380516001836020036101000a031916815260200191505b5094505050505060206040518083038186803b15156112b557600080fd5b6102c65a03f415156112c657600080fd5b505050604051805190508015611458575073__StringUtils___________________________6346bdca9a87600001866000604051602001526040518363ffffffff167c01000000000000000000000000000000000000000000000000000000000281526004018080602001806020018381038352858181546001816001161561010002031660029004815260200191508054600181600116156101000203166002900480156113b75780601f1061138c576101008083540402835291602001916113b7565b820191906000526020600020905b81548152906001019060200180831161139a57829003601f168201915b5050838103825284818151815260200191508051906020019080838360005b838110156113f15780820151818401526020810190506113d6565b50505050905090810190601f16801561141e5780820380516001836020036101000a031916815260200191505b5094505050505060206040518083038186803b151561143c57600080fd5b6102c65a03f4151561144d57600080fd5b505050604051805190505b80156115e0575073__StringUtils___________________________6346bdca9a87600101856000604051602001526040518363ffffffff167c010000000000000000000000000000000000000000000000000000000002815260040180806020018060200183810383528581815460018160011615610100020316600290048152602001915080546001816001161561010002031660029004801561153f5780601f106115145761010080835404028352916020019161153f565b820191906000526020600020905b81548152906001019060200180831161152257829003601f168201915b5050838103825284818151815260200191508051906020019080838360005b8381101561157957808201518184015260208101905061155e565b50505050905090810190601f1680156115a65780820380516001836020036101000a031916815260200191505b5094505050505060206040518083038186803b15156115c457600080fd5b6102c65a03f415156115d557600080fd5b505050604051805190505b8015611768575073__StringUtils___________________________6346bdca9a87600201846000604051602001526040518363ffffffff167c01000000000000000000000000000000000000000000000000000000000281526004018080602001806020018381038352858181546001816001161561010002031660029004815260200191508054600181600116156101000203166002900480156116c75780601f1061169c576101008083540402835291602001916116c7565b820191906000526020600020905b8154815290600101906020018083116116aa57829003601f168201915b5050838103825284818151815260200191508051906020019080838360005b838110156117015780820151818401526020810190506116e6565b50505050905090810190601f16801561172e5780820380516001836020036101000a031916815260200191505b5094505050505060206040518083038186803b151561174c57600080fd5b6102c65a03f4151561175d57600080fd5b505050604051805190505b80156118f0575073__StringUtils___________________________6346bdca9a88600901836000604051602001526040518363ffffffff167c010000000000000000000000000000000000000000000000000000000002815260040180806020018060200183810383528581815460018160011615610100020316600290048152602001915080546001816001161561010002031660029004801561184f5780601f106118245761010080835404028352916020019161184f565b820191906000526020600020905b81548152906001019060200180831161183257829003601f168201915b5050838103825284818151815260200191508051906020019080838360005b8381101561188957808201518184015260208101905061186e565b50505050905090810190601f1680156118b65780820380516001836020036101000a031916815260200191505b5094505050505060206040518083038186803b15156118d457600080fd5b6102c65a03f415156118e557600080fd5b505050604051805190505b80156119015750600088600a015414155b801561191c575087600f0160009054906101000a900460ff16155b801561192b57504288600a0154115b8015611945575087600f0160019054906101000a900460ff165b15611a3d5787600d01543073ffffffffffffffffffffffffffffffffffffffff16311115611a3457600188600f0160006101000a81548160ff0219169083151502179055504288600a0181905550600088600b018190555087600d0154600454016004819055503373ffffffffffffffffffffffffffffffffffffffff166108fc89600d01549081150290604051600060405180830381858888f1935050505015156119f057600080fd5b7f7a355715549cfe7c1cba26304350343fbddc4b4f72d3ce3e7c27117dd20b5cb888600d01546040518082815260200191505060405180910390a160019850611a42565b60009850611a42565b600080fd5b505050505050505095945050505050565b6000611a5d612005565b611a65612039565b611a6d6120af565b600654600354101515611a7f57600080fd5b611a8a8c8c8c610b58565b600f81905550600c600f54811515611a9e57fe5b04600e81905550600f54600c60008282540192505081905550600e543410151515611ac857600080fd5b606060405190810160405280898152602001888152602001878152509250610100604051908101604052808481526020018f81526020018e81526020018d81526020018c81526020018b81526020018a8152602001868152509150610100604051908101604052808381526020016301e133804201815260200162278d0042018152602001600e548152602001600a548152602001600f54815260200160001515815260200160001515815250905080600760003373ffffffffffffffffffffffffffffffffffffffff1673ffffffffffffffffffffffffffffffffffffffff1681526020019081526020016000206000820151816000016000820151816000016000820151816000019080519060200190611be59291906120ff565b506020820151816001019080519060200190611c029291906120ff565b506040820151816002019080519060200190611c1f9291906120ff565b5050506020820151816003019080519060200190611c3e9291906120ff565b506040820151816004019080519060200190611c5b9291906120ff565b506060820151816005019080519060200190611c789291906120ff565b506080820151816006019080519060200190611c959291906120ff565b5060a0820151816007019080519060200190611cb29291906120ff565b5060c0820151816008019080519060200190611ccf9291906120ff565b5060e0820151816009019080519060200190611cec9291906120ff565b505050602082015181600a0155604082015181600b0155606082015181600c0155608082015181600d015560a082015181600e015560c082015181600f0160006101000a81548160ff02191690831515021790555060e082015181600f0160016101000a81548160ff0219169083151502179055509050506001600354016003819055508060200151600d60006101000a81548163ffffffff021916908363ffffffff1602179055507f37f2ee001c6b004c116d1d6b3ba11741f14571fd4723d360623dee0f56da4e408d346040518080602001838152602001828103825284818151815260200191508051906020019080838360005b83811015611dfe578082015181840152602081019050611de3565b50505050905090810190601f168015611e2b5780820380516001836020036101000a031916815260200191505b50935050505060405180910390a1600193505050509a9950505050505050505050565b600560109054906101000a900463ffffffff1681565b600a5481565b6000600760003373ffffffffffffffffffffffffffffffffffffffff1673ffffffffffffffffffffffffffffffffffffffff168152602001908152602001600020600f0160009054906101000a900460ff16905090565b60008034111515611ed157600080fd5b60001515611edd610a1a565b1515141515611eeb57600080fd5b346000803373ffffffffffffffffffffffffffffffffffffffff1673ffffffffffffffffffffffffffffffffffffffff16815260200190815260200160002054016000803373ffffffffffffffffffffffffffffffffffffffff1673ffffffffffffffffffffffffffffffffffffffff1681526020019081526020016000208190555060016000815480929190600101919050555034600254016002819055507fac9f7997c30b6a3cc9c74953898b5de154359339c7ec0d6d70ceb98e55db1a4b346040518082815260200191505060405180910390a16001905090565b600560009054906101000a90046fffffffffffffffffffffffffffffffff1681565b600e5481565b602060405190810160405280600081525090565b60606040519081016040528061201961217f565b815260200161202661217f565b815260200161203361217f565b81525090565b6101406040519081016040528061204e612193565b815260200161205b61217f565b815260200161206861217f565b815260200161207561217f565b815260200161208261217f565b815260200161208f61217f565b815260200161209c61217f565b81526020016120a961217f565b81525090565b610220604051908101604052806120c46121c7565b815260200160008152602001600081526020016000815260200160008152602001600081526020016000151581526020016000151581525090565b828054600181600116156101000203166002900490600052602060002090601f016020900481019282601f1061214057805160ff191683800117855561216e565b8280016001018555821561216e579182015b8281111561216d578251825591602001919060010190612152565b5b50905061217b919061223d565b5090565b602060405190810160405280600081525090565b6060604051908101604052806121a761217f565b81526020016121b461217f565b81526020016121c161217f565b81525090565b610140604051908101604052806121dc612193565b81526020016121e961217f565b81526020016121f661217f565b815260200161220361217f565b815260200161221061217f565b815260200161221d61217f565b815260200161222a61217f565b815260200161223761217f565b81525090565b61225f91905b8082111561225b576000816000905550600101612243565b5090565b90565b6046600860405180807f696e737572656441676500000000000000000000000000000000000000000000815250600a019050908152602001604051809103902060405180807f313000000000000000000000000000000000000000000000000000000000000081525060020190509081526020016040518091039020819055506050600860405180807f696e737572656441676500000000000000000000000000000000000000000000815250600a019050908152602001604051809103902060405180807f31350000000000000000000000000000000000000000000000000000000000008152506002019050908152602001604051809103902081905550605a600860405180807f696e737572656441676500000000000000000000000000000000000000000000815250600a019050908152602001604051809103902060405180807f323000000000000000000000000000000000000000000000000000000000000081525060020190509081526020016040518091039020819055506064600860405180807f696e737572656441676500000000000000000000000000000000000000000000815250600a019050908152602001604051809103902060405180807f32350000000000000000000000000000000000000000000000000000000000008152506002019050908152602001604051809103902081905550606e600860405180807f696e737572656441676500000000000000000000000000000000000000000000815250600a019050908152602001604051809103902060405180807f333000000000000000000000000000000000000000000000000000000000000081525060020190509081526020016040518091039020819055506078600860405180807f696e737572656441676500000000000000000000000000000000000000000000815250600a019050908152602001604051809103902060405180807f64656661756c740000000000000000000000000000000000000000000000000081525060070190509081526020016040518091039020819055506078600860405180807f696e7375726564536d6f6b696e675374617475730000000000000000000000008152506014019050908152602001604051809103902060405180807f796573000000000000000000000000000000000000000000000000000000000081525060030190509081526020016040518091039020819055506064600860405180807f696e7375726564536d6f6b696e675374617475730000000000000000000000008152506014019050908152602001604051809103902060405180807f6e6f0000000000000000000000000000000000000000000000000000000000008152506002019050908152602001604051809103902081905550607d600860405180807f696e73757265644f636375706174696f6e0000000000000000000000000000008152506011019050908152602001604051809103902060405180807f70696c6f740000000000000000000000000000000000000000000000000000008152506005019050908152602001604051809103902081905550607d600860405180807f696e73757265644f636375706174696f6e0000000000000000000000000000008152506011019050908152602001604051809103902060405180807f61726d79000000000000000000000000000000000000000000000000000000008152506004019050908152602001604051809103902081905550607d600860405180807f696e73757265644f636375706174696f6e0000000000000000000000000000008152506011019050908152602001604051809103902060405180807f706f6c69636500000000000000000000000000000000000000000000000000008152506006019050908152602001604051809103902081905550607d600860405180807f696e73757265644f636375706174696f6e0000000000000000000000000000008152506011019050908152602001604051809103902060405180807f70696c6f7400000000000000000000000000000000000000000000000000000081525060050190509081526020016040518091039020819055506073600860405180807f696e73757265644f636375706174696f6e0000000000000000000000000000008152506011019050908152602001604051809103902060405180807f64726976657200000000000000000000000000000000000000000000000000008152506006019050908152602001604051809103902081905550606e600860405180807f696e73757265644f636375706174696f6e0000000000000000000000000000008152506011019050908152602001604051809103902060405180807f64656661756c7400000000000000000000000000000000000000000000000000815250600701905090815260200160405180910390208190555066038d7ea4c68000600981905550662386f26fc10000600a81905550683635c9adc5dea00000600560006101000a8154816fffffffffffffffffffffffffffffffff02191690836fffffffffffffffffffffffffffffffff1602179055506276a7004201600560106101000a81548163ffffffff021916908363ffffffff1602179055506276a7004201600d60006101000a81548163ffffffff021916908363ffffffff1602179055506127106006819055506032600b819055505600a165627a7a723058206d3810ce36580f7f6ea82240dd629e1893bfc1400bf14b9baa7a99175db93b3b0029",
  "source": "pragma solidity ^0.4.17;\r\n\r\nimport \"./stringUtils.sol\";\r\nimport \"./PolicyInvestable.sol\";\r\nimport \"./SafeMath.sol\";\r\n\r\ncontract LifeInsurancePolicy is PolicyInvestable { \r\n    using SafeMath for uint256;\r\n    // Investment data \r\n    mapping (address => uint) public investors;\r\n    uint public totalInvestorsCount;\r\n    uint public totalInvestedAmount;\r\n\r\n    uint public totalInsurers;\r\n    uint public totalClaimsPaid;\r\n    \r\n    uint128 public investmentsLimit;\r\n    uint32 public investmentsDeadlineTimeStamp;\r\n    \r\n    uint8 constant DECIMAL_PRECISION = 8;\r\n    uint24 constant ALLOWED_RETURN_INTERVAL_SEC = 24 * 60 * 60; // each 24 hours\r\n\r\n\r\n    // Insurance data\r\n    uint public policiesLimit;\r\n    mapping (address => PolicyData) insurancePolicies;\r\n    mapping (string => mapping(string => uint) ) insuranceParameters;\r\n    uint public basePremium;\r\n    uint public maxPayout;\r\n    uint loading;\r\n    uint public writtenPremiumAmount;\r\n    uint32 public lastPolicyDate;\r\n    uint public monthlyPayment;\r\n    uint public totalPrice;\r\n\r\n    \r\n    // Owner is used to confirm policies and claims which came via our server\r\n    address owner = 0x627306090abaB3A6e1400e9345bC60c78a8BEf57;\r\n\r\n    event Insured(string insuredName, uint insurancePrice);\r\n    event Claimed(uint payout); \r\n\r\n    struct PolicyData {\r\n        InsuredData insured;\r\n        uint endDateTimestamp;\r\n        uint nextPaymentTimestamp;\r\n        uint monthlyPayment;\r\n        uint maxPayout;\r\n        uint totalPrice;\r\n        bool claimed;\r\n        bool confirmed;\r\n    }\r\n\r\n    struct InsuredDeathData {\r\n        string insuredDeathLetterNumber;\r\n        string insuredGovernmentLetterNumber;\r\n        string insuredDeathHospital;\r\n    }\r\n\r\n    struct InsuredData {\r\n        InsuredDeathData deathData;\r\n        string userId;\r\n        string insuredName;\r\n        string insuredAge;\r\n        string insuredSmokingStatus;\r\n        string insuredOccupation;\r\n        string insuredNIK;\r\n        string policyNumber;\r\n    }\r\n\r\n    function LifeInsurancePolicy() payable {\r\n        // Initial funds\r\n        investors[msg.sender] = investors[msg.sender] + msg.value;\r\n        totalInvestorsCount++;\r\n        totalInvestedAmount = totalInvestedAmount + msg.value;\r\n        Invested(msg.value);\r\n\r\n        setInitialInsuranceParameters();\r\n    }\r\n\r\n    function setInitialInsuranceParameters() internal {\r\n        // Insured Age upper than\r\n        insuranceParameters['insuredAge']['10'] = 70;\r\n        insuranceParameters['insuredAge']['15'] = 80;\r\n        insuranceParameters['insuredAge']['20'] = 90;\r\n        insuranceParameters['insuredAge']['25'] = 100;\r\n        insuranceParameters['insuredAge']['30'] = 110;\r\n        insuranceParameters['insuredAge']['default'] = 120;\r\n\r\n        // Insured smoking status\r\n        insuranceParameters['insuredSmokingStatus']['yes'] = 120;\r\n        insuranceParameters['insuredSmokingStatus']['no'] = 100;\r\n\r\n\r\n        // Insured Occupation\r\n        insuranceParameters['insuredOccupation']['pilot'] = 125;\r\n        insuranceParameters['insuredOccupation']['army'] = 125;\r\n        insuranceParameters['insuredOccupation']['police'] = 125;\r\n        insuranceParameters['insuredOccupation']['pilot'] = 125;\r\n        insuranceParameters['insuredOccupation']['driver'] = 115;\r\n        insuranceParameters['insuredOccupation']['default'] = 110;\r\n        \r\n\r\n        // Base premium (0.001 ETH)\r\n        basePremium = 1000000000000000;\r\n\r\n        // Max payout (0.01 ETH)\r\n        maxPayout = 10000000000000000;\r\n        \r\n        investmentsLimit = 1000000000000000000000; //1000 ETH\r\n        investmentsDeadlineTimeStamp = uint32(now) + 90 days;\r\n        lastPolicyDate = uint32(now) + 90 days;\r\n        policiesLimit = 10000;\r\n\r\n        // Loading percentage (expenses, etc)\r\n        loading = 50;\r\n    }\r\n\r\n    // fallback functon not to take ethers\r\n    function() payable { \r\n        throw;\r\n    }\r\n\r\n    // policy part\r\n    // More parameters should be included\r\n    function policyPrice(string insuredAge, string insuredSmokingStatus,  string insuredOccupation) constant returns(uint price) {\r\n        // set defaults\r\n        uint insuredAgeMultiplier = insuranceParameters['insuredAge']['default'];\r\n        uint insuredSmokingStatusMultiplier = insuranceParameters['insuredSmokingStatus'][insuredSmokingStatus];\r\n        uint insuredOccupationMultiplier = insuranceParameters['insuredOccupation']['default'];\r\n\r\n        if(insuranceParameters['insuredAge'][insuredAge] != 0) {\r\n            insuredAgeMultiplier = insuranceParameters['insuredAge'][insuredAge];\r\n        }\r\n        if(insuranceParameters['insuredOccupation'][insuredOccupation] != 0) {\r\n            insuredOccupationMultiplier = insuranceParameters['insuredOccupation'][insuredOccupation];\r\n        }\r\n\r\n        // / 100 is due to Solidity not supporting doubles\r\n        uint riskPremium = basePremium * insuredAgeMultiplier / 100 * insuredSmokingStatusMultiplier / 100 \r\n                         * insuredOccupationMultiplier / 100;\r\n\r\n        uint officePremium = riskPremium / (100 - loading) * 100; \r\n        return officePremium;\r\n    }\r\n    function insure(string userId, string insuredName, string insuredAge, string insuredSmokingStatus, string insuredOccupation, string insuredNIK, string insuredDeathLetterNumber, string insuredGovernmentLetterNumber, string insuredDeathHospital, string policyNumber) payable returns (bool insured) {\r\n        require(totalInsurers < policiesLimit);\r\n    \r\n        totalPrice = policyPrice(insuredAge, insuredSmokingStatus, insuredOccupation);\r\n        monthlyPayment = totalPrice / 12;\r\n        \r\n        writtenPremiumAmount += totalPrice; \r\n    \r\n        require(msg.value >= monthlyPayment);\r\n    \r\n        var deathData = InsuredDeathData(insuredDeathLetterNumber, insuredGovernmentLetterNumber, insuredDeathHospital);\r\n        var insuredData = InsuredData(deathData, userId, insuredName, insuredAge, insuredSmokingStatus, insuredOccupation, insuredNIK, policyNumber);\r\n        var policy = PolicyData(insuredData, now + 1 years, now + 30 days, monthlyPayment, maxPayout, totalPrice, false, false);\r\n    \r\n        insurancePolicies[msg.sender] = policy;\r\n        totalInsurers = totalInsurers + 1;\r\n        lastPolicyDate = uint32(policy.endDateTimestamp);\r\n    \r\n        Insured(insuredName, msg.value);\r\n        return true;\r\n    }\r\n\r\n    function confirmPolicy(address policyOwner) {\r\n        require(owner == msg.sender);\r\n        insurancePolicies[policyOwner].confirmed = true;\r\n    }\r\n\r\n    function claim(string insuredNIK, string insuredDeathLetterNumber, string insuredGovernmentLetterNumber, string insuredDeathHospital, string policyNumber) returns (bool) {\r\n        var userPolicy = insurancePolicies[owner];\r\n        var userData = userPolicy.insured;\r\n        var deathData = userPolicy.insured.deathData;\r\n        var iNIK = insuredNIK;\r\n        var iDeathLetterNumber = insuredDeathLetterNumber;\r\n        var iGovernmentLetterNumber = insuredGovernmentLetterNumber;\r\n        var iDeathHospital = insuredDeathHospital;\r\n        var pNumber = policyNumber;\r\n    \r\n        if(StringUtils.equal(userData.insuredNIK, iNIK) && StringUtils.equal(deathData.insuredDeathLetterNumber, iDeathLetterNumber) && StringUtils.equal(deathData.insuredGovernmentLetterNumber, iGovernmentLetterNumber) && StringUtils.equal(deathData.insuredDeathHospital, iDeathHospital) && StringUtils.equal(userData.policyNumber, pNumber)  && userPolicy.endDateTimestamp != 0 && !userPolicy.claimed && userPolicy.endDateTimestamp > now && userPolicy.confirmed) {\r\n            if(this.balance > userPolicy.maxPayout) {\r\n                userPolicy.claimed = true;\r\n                userPolicy.endDateTimestamp = now;\r\n                userPolicy.nextPaymentTimestamp = 0;\r\n        \r\n                totalClaimsPaid = totalClaimsPaid + userPolicy.maxPayout;\r\n                msg.sender.transfer(userPolicy.maxPayout);\r\n                Claimed(userPolicy.maxPayout);\r\n                return true;\r\n            }\r\n          // Due to proposed statisticl model in production app this should never happen\r\n          return false;\r\n        } else {\r\n          throw;\r\n        }\r\n    }\r\n\r\n    function getPolicyEndDateTimestamp() constant returns (uint) {\r\n        return insurancePolicies[msg.sender].endDateTimestamp;\r\n    }\r\n    \r\n    function getPolicyNextPayment() constant returns (uint) {\r\n        return insurancePolicies[msg.sender].nextPaymentTimestamp;\r\n    }\r\n    \r\n    function claimed() constant returns (bool) {\r\n        return insurancePolicies[msg.sender].claimed;\r\n    }\r\n\r\n    //investor Part\r\n    function invest() payable returns (bool success) {\r\n        require(msg.value > 0);\r\n        require(isInvestmentPeriodEnded() == false);\r\n\r\n        investors[msg.sender] = investors[msg.sender] + msg.value;\r\n        totalInvestorsCount++;\r\n        totalInvestedAmount = totalInvestedAmount + msg.value;\r\n        Invested(msg.value);\r\n        return true;\r\n    }\r\n\r\n    function isInvestmentPeriodEnded() constant returns (bool) {\r\n        return (investmentsDeadlineTimeStamp < now);\r\n    }\r\n}",
  "sourcePath": "D:\\Repos\\repogithub\\claimore_smart_contract\\contracts\\LifeInsurancePolicy.sol",
  "compiler": {
    "name": "solc",
    "version": "0.4.18+commit.9cf6e910.Emscripten.clang"
  },
  "schemaVersion": "1.0.1",
  "updatedAt": "2018-01-24T17:27:17.059Z"
}